:020000040000FA
:0600000002011D021D8F2C
:03002B000224D2DA
:030033000224B4F0
:03005300021E0288
:03006B0002248BE1
:10008300021C43E5C754F84401F5C7790122000077
:100093000080FB120086B90003020107E47921788E
:1000A30008B800028004F709D8FCE479297802B87B
:1000B30000028004F709D8FCE490028178BB790739
:1000C3008002F0A3D8FCD9FA781A90014D7A01BACC
:1000D30000028007E493A3F608DAF990093BAA82A9
:1000E300AB8390014E789379038015E493A3AC829C
:1000F300AD838A828B83F0A3AA82AB838C828D83A8
:10010300D8E9D9E775821C7583A2740312012F7590
:100113008291758300740012012F75D00075813FA1
:10012300751881751902759F00020096C09FF59F8F
:10013300E473D09F22D083D082C09FE493C0E07445
:100143000193C0E0740293F59F2201FF0000B40005
:100153000028002800283075A000A000A000A000FF
:1001630000080008E001F00010001000100010006B
:100173001000100050005000500010001000D00775
:100183000000000000000F000100050030750700AB
:100193001000010081FF0000FFD805F605DE05FF12
:1001A30002020208025000A0000000E80302FC84DF
:1001B300010000EE8402008501000090090206851B
:1001C300010000B2020200850100009109020885C6
:1001D300010000C8020200850100009209020A859D
:1001E300010000CA020200850100009309020C8588
:1001F300080000CB020200850100009409020E856D
:100203000100009509FF0100FF2002FC84010000AA
:10021300F784020085010000F9090210850000003F
:1002230000000202850300001803A80BA80BA80B0B
:10023300A80BA80BA80BA80BA80BA80BA80BA80B23
:10024300A80BA80B360E4E0E300E140953696D70B1
:100253006C65424C455065726970686572616C05E6
:100263001250002003020A00020106030209184388
:100273004D205465636820546865726D6F6D6574B5
:10028300657200001A0F0000FFFF02020202020261
:10029300020202010D000000100102FC84010000B3
:1002A300F1840200850100007A0A02208501000022
:1002B3008D070200850100007B0A021E85010000F4
:1002C300AF830200850100007C0A021C8501000047
:1002D30093830200850100007D0A021A8501000054
:1002E300EC820200850100007E0A021885010000ED
:1002F300DA820200850100007F0A021685010000F0
:10030300C882020085010000800A023485010000D2
:10031300FE82020085010000810A021285010000AD
:100323008583020085010000820A02248501000002
:10033300830A01E803053F10FF0001307503020142
:1003430006000000000000000000000000000000A4
:1003530000000000000000000000000000FFFF0696
:1003630000800CE803200C02102A1E013C02FC84CE
:10037300010000F484020085010000550B022C8566
:1003830000000026090202850300002709020485F4
:10039300010000560B020085010000570B022E8559
:1003A3000100002D09020085010000580B02308571
:1003B3000000002E090202850300002F09020085B8
:1003C300010000590B0232850900005A0B02028515
:1003D30003000035090228850100005B0B12013878
:1003E3004E95031201386595031201389495031253
:1003F3000138CD9503120138F59503120138239680
:10040300031201383A960312013851960312013848
:100413006796031201388E9603120138A1960312D0
:100423000138B79603120138DF960312013811A47D
:100433000212013810A50212013845A50212013833
:1004430066A50212013876A50212013897A5021299
:100453000138A3A60212013870A702120138E3A7DC
:100463000212013869A802120138ACA8021201383D
:10047300E3A80212013869A9021201383BAA021249
:10048300013899AA02120138B1AA021201382BAB22
:10049300021201382EAB0212013831AB02120138BD
:1004A300D8AB02120138F0AB0212013820AC0212B1
:1004B300013840AC021201382EAD02120138E4AD0E
:1004C3000212013822DF021201384ADF0212013818
:1004D30078DF02120138AFDF0212013817E002128F
:1004E300013860E002120138ABE002120138E9E0A2
:1004F3000212013826E10212013854E102120138D6
:10050300FBE10212013805E20212013812E2021283
:10051300013845E20212013807E30212013813E3FE
:10052300021201382BE30212013835E302120138BB
:100533008B9F03120138999F03120138B19F031255
:100543000138C99F03120138F9A70112013897A88E
:10055300011201380FA90112013824AA011201382E
:100563005EAA0112013807AB01120138DCAB01129C
:10057300013840AD0112013897AD011201381EAEAA
:100583000112013805AF0112013852AF01120138CF
:10059300E0AF0112013804B001120138D9B10112E0
:1005A30001381AB2011201383CB201120138BDB24E
:1005B30001120138A7B3011201386DB401120138D9
:1005C30046CE0212013818CF02120138C1CF0212EF
:1005D300013804D00212013891D0021201381DD122
:1005E30002120138FED1021201382DD20212013853
:1005F30029D30212013871D30212013873D40212C3
:100603000138B7D402120138DDD40212013816A121
:10061300031201385EF90212013874F9021201382B
:100623009AF902120138C2FA02120138CCFA021204
:10063300013825FC0212013825FD0212013852D57A
:100643000212013887D602120138BAD602120138D3
:1006530004D702120138C2D802120138E9980112F4
:1006630001384C9901120138919A01120138A19A6B
:1006730001120138C49A011201380F9B011201388B
:10068300B49B01120138AA9C01120138749D011216
:100693000138EC9E011201382E9F01120138CC9FC4
:1006A30001120138F29F01120138E0A10112013851
:1006B300E5A101120138C6A3011201381AA40112DF
:1006C30001387CA401120138A4A40112013848A501
:1006D300011201380AA6011201383BA601120138A2
:1006E3003EA60112013886A601120138C8A60112DE
:1006F30001382FA7011201382FFD0212013842FDE4
:10070300021201385BFD02120138A6FD0212013804
:1007130081FE0212013810FF021201385BFF021240
:100723000138F824001201380425001201383D2550
:1007330000120138822500120138392600120138CF
:10074300BF2600120138EB260012013824270012BD
:100753000138382900120138142B00120138FF2CFC
:1007630000120138362E001201389630001201387B
:10077300823100120138C83200120138D533001219
:100783000138F233001201382A340012013844349C
:1007930000120138AC340012013846390012013816
:1007A300E73900120138383A001201385F3A001273
:1007B3000138AD3A00120138CB3A001201381F3B21
:1007C30000120138273C00120138AF3C00120138F7
:1007D30078DA0212013882DA021201384DDB021292
:1007E300013868DB021201388EDB02120138D2DBDA
:1007F300021201380ADC0212013833DC021201381A
:10080300ACDC02120138C1DC02120138D6DC021260
:1008130001380DDD0212013821DD0212013852DDEB
:10082300021201388CDD02120138B8DD02120138E0
:100833000EDE0212013862DE02120138ABDE021252
:100843000138D5DE02120138FADE0212013872F5E0
:10085300021201383CF6021201381FF70212013866
:1008630095F702120138D7F70212013804F9021280
:1008730001380080021201382980021201384280B7
:10088300021201388781021201386582021201388F
:100893008482021201381183021201385483021236
:1008A3000138A18402120138408502120138BF8742
:1008B300021201385688021201382A8902120138BD
:1008C3000C8A02120138788B021201380B8C021247
:1008D3000138A09B03120138099C031201385D9C67
:1008E30003120138849C031201389EFB0112013864
:1008F3000BFC0112013856FC011201384BFD0112A9
:10090300013847FE0112013831FF011201384FAEA1
:100913000212013891AE021201386BAF0212013894
:1009230044B0021201383FB1021201381EB2021262
:1009330001388AB20212013851B302120138BCB332
:100943000212013823B4021201384EB402120138E4
:10095300BFB40212013852B502120138BBB50212FC
:100963000138D0B50212013818B60212013831B677
:100973000212013896B60212013899B602120138F2
:100983004587031201386D8703120138AB870312C1
:100993000138698803120138D48803120138F088BA
:1009A30003120138188903120138488903120138E8
:1009B300578903120138D18903120138F7890312C9
:1009C300013820C501120138FDC601120138F8C8EB
:1009D30001120138CBC90112013816CA01120138BC
:1009E30061CA0112013873CA01120138B3CA011274
:1009F3000138E8CA0112013834CB0112013863CB44
:100A03000112013886CB01120138D3CB0112013810
:100A13005CCC0112013869CE0112013854D00112A5
:100A2300013897D001120138FCD1011201383DD2AF
:100A330001120138B0D201120138FCD2011201387F
:100A430027D301120138828C02120138AD8C0212B5
:100A53000138949302120138B89502120138739742
:100A630002120138D09802120138163D00120138E3
:100A7300AD3D00120138DA3D00120138203E00126C
:100A830001385F3F00120138F6400012013870410F
:100A9300001201388B410012013800420012013864
:100AA3002F43001201388A44001201388C4500128A
:100AB3000138E946001201380247001201385F4746
:100AC30000120138414800120138744800120138FD
:100AD300E448001201385E4900120138AD490012A2
:100AE3000138794A001201387E4B001201385D4CFF
:100AF30000120138E84C00120138564D001201383B
:100B0300CA4D00120138F34D00120138B24E0012E3
:100B130001382C5000120138495000120138685036
:100B230000120138F950001201381E510012013829
:100B3300465100120138C151001201381B520012F4
:100B430001386F53001201382C5400120138FF543E
:100B53000012013851D301120138A1D30112013817
:100B6300ADD3011201388AD401120138BAD401126B
:100B73000138F2D40112013871D501120138A9D517
:100B830001120138FBD50112013838D601120138A0
:100B93005DD80112013889DA0112013884DC0112AF
:100BA30001385FDE01120138E87F00120138388511
:100BB30001120138828501120138618B011201385B
:100BC300E28C011201384193011201383C94011265
:100BD30001387994011201389C9401120138DE9492
:100BE30001120138E79401120138F194011201381E
:100BF300DD9501120138D196011201382D550012ED
:100C03000138A55F00120138AB5F00120138B766E7
:100C130000120138A883031201383E8403120138FD
:100C2300548403120138CE8403120138248503123D
:100C33000138628503120138BF85031201383C86EF
:100C43000312013845860312013851860312013815
:100C5300648603120138A08603120138B686031294
:100C63000138158703120138F2EC02120138FFEC48
:100C73000212013819ED0212013858ED021201383F
:100C830096ED02120138FBED0212013810EE02124A
:100C930001381BEE0212013828EE021201383FEE32
:100CA300021201384DEE0212013858EE02120138D9
:100CB30064EE0212013873EE021201387EEE021264
:100CC3000138A1EE021201384AEF021201385AEF3D
:100CD3000212013874EF0212013891EF0212013847
:100CE300ADEF02120138D2EF02120138DCEF02122B
:100CF3000138F0EF021201380FF00212013870F0E0
:100D03000212013876F0021201387CF00212013827
:100D130082F0021201388EF002120138C1F0021281
:100D2300013825E101120138A7E10112013850E22F
:100D33000112013898E301120138A6E501120138C6
:100D43008CE601120138C1E601120138E3E6011213
:100D530001388CE7011201385CE90112013885E999
:100D630001120138FDE9011201382FEA011201389D
:100D73003CEA0112013887EA01120138ABEA011299
:100D83000138FCEC0112013806EE0112013862EE63
:100D930001120138A2B601120138B3B701120138AA
:100DA30097B801120138A1B801120138C3B8011272
:100DB3000138CFB80112013873BA01120138A0BA51
:100DC30001120138B6BB011201380BBC0112013804
:100DD3005ABD011201382FBE011201388BBE011218
:100DE3000138F6BE011201382BBF011201386EBF64
:100DF3000112013838C20112013850C20112013800
:100E0300E1C201120138EFC2011201383CC30112E1
:100E130001384AC301120138B6C30112013831C483
:100E23000112013888C401120138F3980212013803
:100E3300159902120138269B02120138E59D021210
:100E430001380F9F02120138CD9F02120138B9A059
:100E530002120138959303120138BA930312013831
:100E630030940312013829C70212013832C7021223
:100E730001383BC70212013813C802120138C4C932
:100E830002120138F4C9021201381FCA02120138D2
:100E93004FCA021201387ACA02120138AECA0212CC
:100EA3000138DACA021201381DCB0212013848CBCD
:100EB300021201388FCB02120138E4CB021201383F
:100EC30026CC0212013880CC02120138ABCC0212BC
:100ED3000138FACC021201382ACD0212013855CD5D
:100EE3000212013883CD02120138A6CD0212013855
:100EF3009FA103120138CBA103120138F8A10312F9
:100F0300013802A20312013812A2031201385EE86B
:100F1300021201384DEA02120138CEEA02120138F8
:100F2300E4EB0212013871EC02120138F3BE021233
:100F33000138FDBE021201383EBF0212013887BFDD
:100F430002120138C1BF0212013817C00212013860
:100F530038C002120138E7C202120138F0C202128D
:100F6300013844C3021201386DC30212013877C33A
:100F730002120138E5C30212013875C402120138A6
:100F8300D0C402120138FEC40212013886C502120F
:100F93000138C5C502120138FAC5021201380CC660
:100FA300021201382BC60212013834C6021201386C
:100FB300FBC60212013885FF02120138B79D0312E6
:100FC3000138A49103120138DA91031201380E9209
:100FD300031201385B9303120138527F0012013868
:100FE300687F00120138727F00120138BC7F001243
:100FF3000138CAE302120138DDE3021201389EE42C
:1010030002120138DDE402120138FAE40212013857
:1010130033E50212013880E502120138B2E502120B
:101023000138E9E502120138F2E7021201382B9A7E
:10103300031201384E9A031201387D9A03120138C4
:10104300159B03120138579B031201383F8A031281
:101053000138648A031201388E8A0312013874A29C
:1010630003120138726B00120138506D00120138FF
:10107300EF6E001201389A6F001201381A700012D5
:1010830001389F7000120138C87000120138A37430
:10109300001201381A750012013831760012013836
:1010A3006B7600120138AC7600120138F377001228
:1010B3000138497800120138927800120138017919
:1010C300001201386D79001201389E79001201383F
:1010D300B67900120138CF7A00120138DF7A001294
:1010E3000138957C00120138AC7C00120138DE7C9B
:1010F30000120138807E00120138147F001201387B
:1011030062A0031201386EA003120138CAA20312AF
:10111300013809A303120138BCA303120138AE9EA0
:1011230003120138BE9E03120138D39E0312013805
:10113300859F03120138B59C031201383A9D0312AF
:1011430001389E9D03120138F196031201381A9754
:1011530003120138809703120138A0970312013854
:10116300F197031201384C98031201388698031241
:1011730001388998031201383EF1021201386BF1EC
:1011830002120138DDF102120138F2F102120138C4
:1011930013F30212013896F30212013850F40212CB
:1011A30001386FF40212013892F402120138CFF4BD
:1011B30002120138E7F4021201383DF50212013838
:1011C300E4FF02120138F4FF02120138F7FF0212A2
:1011D3000138F87F001201386A8F03120138FA9040
:1011E300031201385B9103120138A19103120138F4
:1011F300939803120138E5980312013858990312A2
:101203000138C59903120138238D031201384D8D1E
:10121300031201381C8E03120138F88E03120138B1
:10122300BDB60212013889B702120138CAB70212D9
:10123300013804B80212013862B802120138B6B894
:101243000212013814B902120138AAB90212013884
:10125300B2BA021201383CBC02120138DABC0212E3
:10126300013841BD0212013854BD0212013848BE93
:101273000212013891BE02120138AFEE0112013899
:10128300E1F10112013872F301120138C9F30112BD
:101293000138E6F30112013866F401120138E2F570
:1012A30001120138B1F6011201381EFA0112013898
:1012B30008FB011201380080031201385B8003121E
:1012C30001386E8003120138AC80031201387B8130
:1012D3000312013859830312013849A30312013859
:1012E30013A30312013876A3031201389EA303E06C
:1012F30066701008A3E066700A08A3E0667004082D
:10130300A3E06622C3E7960809E7960809E796086B
:1013130009E79622C3E09608A3E09608A3E096089F
:10132300A3E09622C008C3E096F50808A3E096421E
:101333000808A3E096420808A3E09645087001D385
:10134300D00822080808EAC0E0EBC0E086F0E7A472
:10135300FA180986F0E7A42AFA180986F0E7A42AFE
:10136300FA180986F0E7A42AFA1986F0E7A4FBE540
:10137300F02AFA190886F0E7A42BFBE5F03AFA19EC
:101383000886F0E7A42BFBE5F03AFA18180986F073
:10139300E7A4C5F02BFBE43AFA1908E7C5F0C6A4A5
:1013A30026F6E5F03BFBE43AFA1886F0E7A4F6E507
:1013B300F00826F6E43B08F6E43A08F6D0E0FBD062
:1013C300E0FA22E4CFC0E0E4CEC0E0E4CDC0E0E444
:1013D300CCC0E075F020C3E633F608E633F608E642
:1013E30033F608E633F6181818EC33FCED33FDEE4C
:1013F30033FEEF33FFC3EC9709ED9709EE9709EF3F
:1014030097191919400FFFEC97FC09ED97FD09EEA9
:1014130097FE191906D5F0BEECF709EDF709EEF7BB
:1014230009EFF7191919D0E0FCD0E0FDD0E0FED0A8
:10143300E0FF226016080808C6C313C618C613C601
:1014430018C613C618C613C6D5E0EA2270090808E1
:1014530008226016181818C6C333C608C633C60850
:10146300C633C608C633C6D5E0EA22E627F608091E
:10147300E637F60809E637F60809E637F622E026E6
:10148300F608A3E036F608A3E036F608A3E036F63E
:1014930022E026F008A3E036F008A3E036F008A324
:1014A300E036F022C3E697F60809E697F60809E660
:1014B30097F60809E697F622C3E096F008A3E096AC
:1014C300F008A3E096F008A3E096F022E056F608B1
:1014D300A3E056F608A3E056F608A3E056F622E08A
:1014E30056F008A3E056F008A3E056F008A3E05630
:1014F300F022E0F608A3E0F608A3E0F608A3E0F67E
:1015030022E6F008A3E6F008A3E6F008A3E6F0223B
:10151300E0FAA3E0FBA3E0FCA3E0FD22EAF0A3EBE7
:10152300F0A3ECF0A3EDF022CAC0E0E6F0A308DAE2
:10153300FAD0E0FA22CAC0E0E0A3C582CCC582C5D6
:1015430083CDC583F0A3C582CCC582C583CDC583B6
:10155300DAE6D0E0CA22C3E498F8E499F912159ABE
:101563008026C3E49AFAE49BFBE920E7E912159A83
:10157300E498F8E499F922C3E498F8E499F9121588
:101583009AE498F8E499F9C3E49AFAE49BFB22EB12
:1015930020E7CFE920E7E0B90010BB0008E88AF0B4
:1015A30084F8AAF022E4FBC8FA22EB70227B10C86D
:1015B30033C8C933C9335007C39AC3DBF280069AD1
:1015C30050012ADBEAC833F4C8C933F4C9FA2275D7
:1015D300F008E4C833C8C933C933C99AC99B500456
:1015E300C92AC93BD5F0ECFBC833F4C8E4C9FA22D5
:1015F300600D08C6A2E713C618C613C6D5E0F322CA
:10160300600C08C6C313C618C613C6D5E0F422700F
:101613000422600D18C6C333C608C633C6D5E0F42A
:101623001822251810AF08F518400215198008F57F
:101633001840021519D2AF22C0D0251810AF08F5F3
:1016430018500205198008F51850020519D2AFD0B9
:10165300D0222518F58210AF08F51840021519801D
:1016630008F51840021519D2AF851983222518F5FC
:1016730082E43519F58322E4732518C582C0E0E5B9
:101683001934FFC583C0E0E518C3958224F810AF71
:10169300088583198582188008858319858218D265
:1016A300AFCEF0A3E520F0A37808E608F0A3DEFAB6
:1016B300EFF0A3E58124FAF8E608F0A3E608F0A327
:1016C300E608F0A30808E608F0A3E608F0A31581EE
:1016D3001581D0E0FED0E0F8158115811581E8C0B1
:1016E300E0EEC0E0222518C582C0E0E51934FFC54D
:1016F30083C0E0E518C3958224F910AF08858319E8
:101703008582188008858319858218D2AFCEF0A30D
:10171300E520F0A37808E608F0A3DEFAEFF0A3E5EE
:101723008124FBF8E608F0A3E608F0A30808E6081E
:10173300F0A3E608F0A315811581D0E0FED0E0F810
:1017430015811581E8C0E0EEC0E022851983851874
:1017530082E0A3FEE0A3F5207808E0A3F608DFFA11
:10176300E0A3FFE0A3C0E0E0A3C0E0E0A3C0E0E0AB
:10177300A3C0E0E0A3C0E010AF08858218858319F9
:101783008008858218858319D2AFD083D082020165
:1017930035851983851882E0A3FEE0A3F520780838
:1017A300E0A3F608DFFAE0A3FFE0A3C0E0E0A3C0F4
:1017B300E0E0A3C0E0E0A3C0E010AF088582188595
:1017C30083198008858218858319D2AFD083D0828C
:1017D30022C0D02518C582C0E0E51934FFC583C0F7
:1017E300E0E518C3958224F310AF08858319858239
:1017F300188008858319858218D2AFC8F0A3E9F051
:10180300A3EAF0A3EBF0A37908E709F0A3D8FAEC75
:10181300F0A3EDF0A3EEF0A3EFF0A3D0E0F0A3D09C
:10182300E0F0A3D0E0F0A3E520F0A3E5F0F0A322DD
:10183300851983851882E0C0E0A3E0F9A3E0FAA349
:10184300E0FBA37808E0F608A3DFFAE0FCA3E0FDE1
:10185300A3E0FEA3E0FFA3E0C0E0A3E0C0E0A3E0B9
:10186300F5D0A3E0F520A3E0A3F5F010AF0885833E
:10187300198582188008858319858218D2AFD08292
:10188300D083D0E0F8D0E032740480067402800282
:101893007401C0E0F404121655D0E012152B227423
:1018A30004800474028000CCC0E0EDC0E0E518C3FE
:1018B3009CCCAD1950011D10AF068C188D198006F4
:1018C3008C188D19D2AF121538D0E0FDD0E0FC2270
:1018D300D083D082E9C0E0E493A3C386F0C5F0953A
:1018E300F0F908E493A386F0C5F095F0700BE49348
:1018F300A3C3994005E9048002A3E475F002A4257B
:1019030082F582E5F03583F583D0E0F9E493A3C053
:10191300E0E493C0E022D083D082ECC0E0EDC0E0ED
:10192300E493A3FCE493A3FDED4C600D121965EC65
:1019330024FFFCED34FFFD80EFE493A3FCE493A3C9
:10194300FDED4C600D1219A4EC24FFFCED34FFFDFA
:1019530080EFD0E0FDD0E0FCE493A3C0E0E493C0CB
:10196300E022C0E0C3E49396087401939618400FF5
:10197300E49366700808740193661870007019A3E5
:10198300A3C3E49396087401939618A3A3400DD0C0
:10199300E0D0E0D0E0021955A3A3A3A3A3A3D0E012
:1019A30022C0E0C0F088F0E49366700808740193E5
:1019B30066187000A8F0A3A3700BD0F0D0E0D0E0BD
:0C19C300D0E0021955A3A3D0F0D0E02220
:1019D00074F51216E8EAFEEBFFEE2434F8EF34005B
:1019E000F988088909EE2435F582EF3400F583E0A3
:1019F000F8EE2437F582EF3400F583E0F50AEC8544
:101A00000AF0A4FCAAF0850AF0EDA42AFDE82CF85F
:101A1000E43DF97A257B0012159AEA85088285094A
:101A200083F05407F87401B800028004C333D8FC73
:101A3000C0E0E0131313541FF8EE28F8EF3400F958
:101A4000E8245DF582E93400F583D0E0F8E05860E1
:101A500008EE2434F582EF801EEE2436F582EF3452
:101A600000F583E0F5F0EA84A8F0EE28F8EF340002
:101A7000F9E82438F582E93400F583E0F97F0402BF
:101A8000179474F51216E8EAFEEBFFEE2434F582A3
:101A9000EF3400F583E0C0E0EE2435F582EF34004A
:101AA000F583D0E0F08E828F83A3A3A3A3A3A3A387
:101AB000C082C0838E828F83A3A3A3A3A3E0F8A3D5
:101AC000E0F9D083D082E0C398F508A3E099F50946
:101AD000EE2480F582EF3400F583E064017069EE56
:101AE0002481F582EF3400F583E0F8A3E0F98E82DB
:101AF0008F83A3A3A3A3A3A3A3E0FCA3E0FD8E82F3
:101B00008F83A3A3A3A3A3E0FAA3E0FBC3EA9CEB08
:101B10009D5027C3EC98ED99402EC3EA98EB99505D
:101B2000277CFD7D04EEFAEFFB120B06EE2480F518
:101B300082EF3400F583E4F0800EC3EA98EB99401D
:101B4000E0C3EC98ED9950D9EE2434F8EF3400F965
:101B5000E8FCE9FDEE2435F582EF3400F583E0F88A
:101B6000EE2437F582EF3400F583E0F50AE50885C9
:101B70000AF0A4F508AAF0850AF0E509A42AF509F7
:101B8000E82508F8E43509F97A257B0012159AEA68
:101B90008C828D83F05407F87401B800028004C36E
:101BA00033D8FCC0E0E0131313541FF8EE28F8EF0D
:101BB0003400F9E8245DF582E93400F583D0E0F8DB
:101BC000E0586008EE2434F582EF801EEE2436F5EE
:101BD00082EF3400F583E0F5F0EA84A8F0EE28F80F
:101BE000EF3400F9E82438F582E93400F583E0F9B0
:101BF00012247D021A7DC082C083851882851983D4
:101C0000E0F8A3E0F9C3EA9CEB9D5012C3EC98ED19
:101C1000994019C3EA98EB99501279018010C3EAF0
:101C200098EB9940F5C3EC98ED9950EE7900D0838C
:101C3000D08222EAC39CFAEB9DFB22008521878596
:101C400022C622C0E0C0D0E8C0E0E9C0E0EAC0E0BF
:101C5000EBC0E0ECC0E0EDC0E0C008C009C00AC0C5
:101C60000BC082C083C0F0759B00906182E0A2E649
:101C70004003021D21E591A2E64003021D2175915A
:101C8000BF9003C2E064057008120C3E120C4A803B
:101C900003120C44752100120CA4E99003C3F079DF
:101CA00000120C98120A7C7A017B009003C1E0F9C3
:101CB000120F8C907803E064426003021D6A900565
:101CC0005FE014F06003021D6AC2AF121CCE007800
:101CD0002AD0E0F618D0E0F6E59F5407F970059099
:101CE0008486800390848278081214F5E9C4C0E0E9
:101CF0007829E65508F50808E65509F509740B78C2
:101D000008121603D0E02508F8906270E0A2E740C0
:101D1000F8E8C333906272F0906270E0D2E0F08035
:101D200049E0A2E55024E591A2E5501E7591DF90AF
:101D300003C2E0640D70139003E4E004F0642870C3
:101D400002E4F07A00E0F9120D16906181E0A2E35E
:101D50005009E5E9A2E3500375E9F7A3E0A2E750D3
:101D600009E591A2E7500375917FD0F0D083D0822E
:101D7000D00BD00AD009D008D0E0FDD0E0FCD0E0F4
:101D8000FBD0E0FAD0E0F9D0E0F8D0D0D0E032C01B
:101D9000E0C0D0C082C083906183E0A2E05009E53A
:101DA000BFA2E0500375BFFEE0A2E15009E5BFA26B
:101DB000E1500375BFFDE0A2E25009E5BFA2E25089
:101DC0000375BFFBE0A2E35009E5BFA2E350037532
:101DD000BFF7E0A2E45009E5BFA2E4500375BFEFEE
:101DE000E0A2E55009E5BFA2E5500375BFDFE0A220
:101DF000E65009E5BFA2E6500375BFBFD083D0828D
:101E00008088C0E0C0D0E8C0E0E9C0E0EAC0E0EB14
:101E1000C0E0ECC0E0EDC0E0C0F0E5A7A2E6500FE6
:101E2000E5A1A2E6500953A7BF75A1BF121E67E541
:101E3000A7A2E5500CE5A1A2E5500653A7DF75A1C6
:101E4000DFE5A7A2E15009E5A1A2E1500375A1FDDC
:101E5000E5A7A2E2500CE5A1A2E2500653A7FB754C
:101E6000A1FBD0F0021D7874F81216E875210190DC
:101E700003C2E064067015120BD28A828B83A3A37F
:101E8000A3A3A3A3E0FAA3E0FB120C2CA2AFE433BC
:101E9000FED2AF9003C8E0640170187A207B0090F6
:101EA00003C1E0F91210167A207B009003C1E0F91B
:101EB000120F92906182E0D2E6F090055EE0602120
:101EC00085C62280169003C7E064017008E5C654F9
:101ED000F84405F5C653BEFC121C3C740165216034
:101EE000E4EEA2E092AF7F01021794008E238F24CC
:101EF000858228858327851882851983E0CEA3E013
:101F0000CF852882852783EBC9EAC8EDCBECCA755B
:101F1000F010C3E833C8E933C9EA33CAEB33CBC3A3
:101F2000EA9EF526EB9FF525B35004AB25AA26ECD7
:101F300033CCED33CDD5F0DAAE23AF242274EB12DF
:101F400016E874FA1216258A088B098C148D1590E0
:101F500003C2E024F7C3940550069084BE02209F7C
:101F6000120BD28A0A8B0BAE0AAF0BEE4F70030234
:101F7000209CAC08AD09851882851983AA82AB83A1
:101F8000120C5C8E828F83A3A378081214F59084C0
:101F9000DA78081214CF851882851983780C121408
:101FA000F59084DA780C1214CF7808790C121307A4
:101FB000501F7808790C1214A790845A78081213CD
:101FC000274047850810850911850A12850B138063
:101FD00041850C10850D11850E12850F137810792F
:101FE000081214A790845A7810121327501C7510E9
:101FF000007511007512007513017810790C121418
:10200000A77810790812146E80089084BE78101298
:1020100014F57409781012144F9084C278081214C1
:10202000F5781079081213C68E828F83A3A3A3A319
:10203000A3A3E0F8A3E0F97AD07B0312159A8808ED
:102040008909E4F50AF50B7810790812146E740406
:10205000121670E0F8A3E0F97AD07B0312159AE823
:10206000FA8A08E4F50978107908121307500778FE
:102070001079081214A79003C2E06408600AE064B3
:10208000066005E06405701C9084567810121327D2
:10209000501290844E7810121481800890847678C3
:1020A000101214F5851482851583781012150474A6
:1020B0000612163B7F0E02179474F71216E8120CE4
:1020C0006E90055CE064017010906245E4F0A3F04E
:1020D00053F4F343FE0C5390F3120C1AE5C65480EC
:1020E0004449F5C6E59E547F644970F89061857453
:1020F0000FF090055AE0F47002A3E0604E90055B8B
:10210000E0600814601B14602E804075080175099A
:102110000090055AE07808121612E508F452808003
:102120002A75080175090090055AE0780812161200
:10213000E508F45290801475080175090090055A5D
:10214000E07808121612E508F452A079007F020226
:10215000179474F71216E8E9FEEAFF74016E700C2A
:102160007A807B009003C1E0F9120F8C9024F0E498
:1021700093F46008E493F9120A70800953C680E56D
:102180009E547F70FA120C2090055CE0640170038D
:10219000120A8890055AE0F47002A3E0604B9005A3
:1021A0005BE0600814601A14602C803D75080175AE
:1021B000090090055AE07808121612E5084280805E
:1021C0002875080175090090055AE0780812161262
:1021D000E5084290801375080175090090055AE0E2
:1021E0007808121612E50842A0120C6E120BD28A61
:1021F000088B09A808A909E8496015E5E170FCE821
:102200002414F582E93400F583E0F46003E0F5E19D
:1022100074016F700A7A019003C1E0F9120FE602AF
:10222000214D74F11216E88A088B098C0A8D0B7403
:102230000F121670780C1214F59084DA78081214C4
:10224000CF9084DA780C1214CF7808790C12130727
:1022500050157808790C1214A790845A7808121334
:1022600027401579018013780C79081214A79084FF
:102270005A780C12132740EB79007F0802179474E8
:10228000ED1216E88A088B098C0A8D0B741312164E
:1022900070780C1214F59084DA78081214CF9084B8
:1022A000DA780C1214CF780C7908121307401178E1
:1022B00008790C1214A7AA08AB09AC0AAD0B80224E
:1022C0007510007511007512007513017810790CE6
:1022D0001214A77810790812146EAA10AB11AC1260
:1022E000AD137F0C0217949084DA78081214F58AE3
:1022F000828B8378081214E27F0402179474F5121B
:1023000016E88C828D8378081214F58A828B837884
:10231000081214BBEA2404F8EB3400F98C828D8394
:10232000A3A3A3A3E0FCA3E0FD88828983C3E09C70
:10233000F0A3E09DF088828983C3E09420A3E09419
:102340004E402290847A78081214F58A828B837822
:10235000081214948A828B83A3A3A3A3E02420F001
:10236000A3E0344EF0808074F51216E8E9FE900583
:1023700014E0FAA3E0FBEEC333F8E433F9747528F4
:10238000F582748339F583E02AF508A3E03BF5096B
:10239000780812188F9084CA121513121EEC74025A
:1023A00012163B8A088B098C0A8D0B741078081260
:1023B0001436AA08AB097F0402179474F11216E8C8
:1023C0008A0C8B0D8C0E8D0F740F121670E0FAA311
:1023D000E0FB7411121670E0F508A3E0F509741320
:1023E000121670E0FEA3E0FF780812188FEA2401AD
:1023F000F508EB3400F509E4F50AF50B780C7908DB
:1024000012134690844A78081214F5780C79081251
:102410001346AA0CAB0DAC0EAD0F121EEC740212DB
:10242000163B8B09EA450960047A0180027A00ECC8
:102430002AFCED3400FDECF8EDF97A717B021215FF
:102440009A88088909E4F50AF50B8E828F8378084B
:10245000121504ECF8EDF97A717B0212159A8A08CC
:102460008B09740578081216128E828F83A3A3A39A
:10247000A3E508F0A3E509F07F08021794C082C025
:1024800083E9906000F0D083D08222C0E074F21221
:1024900017D4A2AFE433FED2AFE589A2E150031214
:1024A0001166758900C2C5751A00EEA2E092AF7F71
:1024B00001021833C0E074F21217D4A2AFE433FE65
:1024C000D2AFE58BA2E05003121166758B00C2E813
:1024D00080D5C0E0C0D0E8C0E0E5A8D2AFC2C775E3
:0E24E0001A00A2E792AFD0E0F8D0D0D0E032E0
:1024F000FFFFFFFFFFFFFFFFC082C083E99009F8E5
:10250000F002271774F712167CE99002E0F07C18AD
:102510007D037AFF7BFF1207AC9002E174FFF0A30A
:10252000F0A3E4F0A3F0790512073A9002E0E0F995
:102530001206687AC47B0712098602342574F412E5
:10254000167C8A088B09EB548060309002E0E0F939
:10255000120F748A0A8B0BAE0AAF0BEE4F60138E0C
:10256000828F83E064B0700312074CEEFAEFFB1227
:102570000F62AA08E5096480FB80047A007B0002F0
:1025800026E674F212167C74FC121625EAFEEBFFA6
:10259000741212167012390CEE4F70030226257455
:1025A00002121670EEF0A3EF122921ECF0A3ED1247
:1025B0002921AA82AB83120662E9F50A706AE5084E
:1025C000450960648E828F831238F2EE4F60567A2E
:1025D000067B00120FCE8A0C8B0DA80CA90DE849C2
:1025E0007005750A13804188828983E4122632EED1
:1025F000F0A3EF12391DE508F0A3E509F09002E61B
:102600001226B99002E670051233CF801B1233BD3B
:102610008003EAFCEBFD8C828D831226B970F38C6B
:10262000828D8380E3750A02A90A740412163B02A4
:102630003B0CF0A31238C3A32274F212167C890A51
:10264000E975F017A4FEAFF09002E5E4F09002E324
:102650001226B9600A120FD49002E3E4F0A3F0EE60
:10266000FAEFFB120FCE8A088B09EA4509602FEEBC
:10267000FCEFFD7900120F4A9002E3E508F0A3E5B4
:1026800009F07B0080081226A3E4F0A3F00BEBC353
:10269000950A40F2E50A9002E5F07900800279138C
:1026A000023B0CEB75F017A4F8A9F09002E3E028C8
:1026B000FAA3E0398A82F58322123061EA4B227450
:1026C000F412167C7900EAA2E0501B7508287509FF
:1026D00084780812188F7C047D007AFA7B0912072F
:1026E00034740212163B7F0402174EC082C08390DE
:1026F00002E612271E601C88828983A3A3E06A7009
:1027000003A3E06B8882898370E8A3A3A3A312309C
:102710005D80047A007B00D083D082020135123BB9
:10272000F2E8492274EE12167C74FC121625EAFEB9
:10273000EBFF851882851983E4F0A3F0EE240212E2
:1027400033AFEE24051238CAEE2404F50EEF122C36
:10275000D6E024FE603924FC604624FE605224FE4C
:10276000605E24FE700302283724FE700302289B5B
:1027700024FE70030228AA24FE70030228B924FC58
:1027800070030228C824FE70030228D7022914907F
:1027900002FF7417F0A3E41229291203E602291498
:1027A000851882851983AC82AD831207520228E412
:1027B000851882851983AC82AD831207580228E4FC
:1027C000850C08850D097402121670AC82AD8385E4
:1027D000088285098312305D1206868A0C8B0DAC47
:1027E0000CAD0DEC4D603BE4F50CF50D780C1218BA
:1027F0008F750CFF750D02780C12188F750C007513
:102800000D03780C12188F74081216701218A61285
:102810003C1612163BE9F50C700B1230531203FEF6
:10282000800F750C018508828509831229171233E0
:10283000CF850C080228E77402121670AC82AD83B3
:10284000850C82850D83122E28603C850C82850DB7
:1028500083A3A31218A67510FF7511027810121821
:102860008F751000751103781012188F74081216E6
:10287000701218A6123C1612163BE9F509700B12DD
:102880003053120404800F750901850C82850D8375
:102890001229171233CF850908804C8518828519B3
:1028A00083AC82AD8312075E803A851882851983D6
:1028B000AC82AD83120764802B851882851983ACA6
:1028C00082AD8312076A801C851882851983AC82C9
:1028D000AD83120770800D851882851983AC82AD97
:1028E00083120776E9F508E50860298E828F83A3B5
:1028F000E06414601F850E82850F83E09002FF1252
:102900002921123BEE9003001233CFE508A31229D0
:10291000291203E00232BE123BF285188285198328
:1029200022F085188285198322F07CFF7D02850ABA
:1029300082850B831230612274EE12167C74FC12B5
:1029400016258A0A8B0B8C0E8D0FEA2405F508EBF1
:102950003400F5097C157D0079007AFF7B02120FA7
:102960004AE5082402F50CE5091238CD8518828560
:102970001983858210858311781012188F8508823B
:10298000850983A3A3A3A3122E1F12188FE5082481
:1029900005F510E5093400F511781012188F850C33
:1029A00082850D83123174120680740612163B8ADA
:1029B000108B11AE10AF11E50A2402F50AE50B12D7
:1029C00033B2EE4F7003022AF680177402121670AB
:1029D00012305D88828983EAF0A3EBF09002FFE079
:1029E00004F09002FFE0C394054003022AF6E4F5E8
:1029F00010F511781012188F7510E8751102781003
:102A000012188F7510E9751102781012188F74065C
:102A10001216701218A67910EEFCEFFD123C181277
:102A2000163BE9705E850882850983A3A3A3A3A34F
:102A3000A3A3E0F89002E8E0687048122E1F121875
:102A40008F7CE97D02E5082408FAE5093400FB12D1
:102A50000F44740212163BE960298E828F83A3A370
:102A6000A3A312305D9002FFE0F5107402781012FB
:102A7000161274002510F58274033511F583EAF0FF
:102A8000A3EBF07402121670858210858311781002
:102A900012188F74021216701218A6850C82850DFA
:102AA0008312308312163B8A108B11AE10AF119037
:102AB00002FFE0F5107511007402781012161274FE
:102AC000FF2510F874023511F988828983A3122634
:102AD000B970030229C2E82403080808E93400F9A0
:102AE000EE4F60030229CB8882898374FFF0A3F044
:102AF0009002FFE004F09002FFE0600A12305312EF
:102B000003F27900800B8508828509831233C67928
:102B10000A0232BE74EA12167C74FE1216258C125A
:102B20008D13EA2405F50CEB123C001238F67508FB
:102B300000750900EA2402F510EB3400F511851840
:102B40008285198385820A85830B780A12188F85FE
:102B50000C82850D83A3A3A3A3122CEC12188FE57E
:102B60000C2405F50AE50D1233B2780A12188F8588
:102B70000C82850D83122CF0120680740612163B0F
:102B80008A0A8B0BEA450B7003022C91EA2404F5A8
:102B90000EEB122CD61238F68A828B83A3A3A3E005
:102BA000F98510828511831230676003022C91E44D
:102BB000F514F515781412188F7514E87515027848
:102BC0001412188F7514E9751502781412188F7481
:102BD000061216701218A67913AC0AAD0B85108276
:102BE000851183123C1E12163BE9F5096003022C85
:102BF000919002E8E0F8E5087009E02402900300F3
:102C0000F08014900300E0FCE82402FAE43400FBB6
:102C1000EA6C7001EB707E850882AA82122E1694EF
:102C200014122E0E506B850E82850F83E0C0E07467
:102C3000012A122CCDD0E0F00508850E82850F8385
:102C4000A3E0C0E085080A7401250A122CCDD0E06B
:102C5000F005089002E8122CEC12188F7CE97D0236
:102C600085080A7401250A122CE012163B9002E82E
:102C7000E02508F50874FF6E700374FF6F6012EEB4
:102C800024010EEF3400FFE508C394145003022B17
:102C90003EE5086013123071851082851183123071
:102CA0005D1203F879008014E509700375090A853F
:102CB0001282851383EEF0A3EFF0A90974021216B5
:102CC0003B7F0E02174E85080C7401250CF58274AB
:102CD000033400F583223400F50F850E82F583223C
:102CE000FA74033400FB120F3274022212392C22C0
:102CF000A3A3122CF6221233BDFDEEFAEFFB2274D1
:102D0000EE12167C74FE1216258C0E8D0FEA240529
:102D1000F50CEB1238CD750B009002FFE4F0F50ACC
:102D2000EA2402F508EB3400F50980449002FFE044
:102D3000FA9002E8E0F8122E169417122E0E400DAB
:102D40009002FFE0F87416C3989002E8F0122E1F6C
:102D500012188F7CE97D0274002AFA7403122CE3A6
:102D600012163B9002E8E0F89002FFE028F0050A16
:102D7000E50C2416F582E50D122CD1E0F8E50AC326
:102D80009850749002FFE0C39416506BE50AC33369
:102D9000F8E433F9E50C28FEE50D39FF8518828546
:102DA0001983AC82AD838E828F83122E28700875B2
:102DB0000B011233C28050E4F510F511781012188F
:102DC0008F7510E8751102781012188F7510E9755B
:102DD0001102781012188F74061216701218A67944
:102DE00016850882850983123C1E12163BE9F50BF5
:102DF0007003022D2C80BB7CFF7D02850882850933
:102E00008312305D12040AA90B74020232C0E994E5
:102E100000C365D03322EA28F8E43400F9E822E060
:102E2000F5107511007810221232B58A108B11AC92
:102E300010AD11EC4D2274EA12167C74FC121625AA
:102E40008A0C8B0D8C128D13EA2405F50AEB1233D4
:102E5000B2750800750900E50A2402F510E50B3487
:102E600000F511740212167085820E85830F780E9C
:102E700012188F850A82850B83A3A3A3A31238D2CD
:102E800012188FE50A2405F50EE50B3400F50F78CE
:102E90000E12188F8510828511831233B8123057A5
:102EA000120680740612163B8A0E8B0FAE0EAF0F01
:102EB000E50C2402F50EE50D3400F50F803888820C
:102EC000898374FFF00508122CC674FFF005089082
:102ED00002E8E0F50C750D00780C12188F7CE97D86
:102EE0000285080C7401250C122CE012163B90028E
:102EF000E8E02508F508EE4F60278E828F83A3A3B4
:102F0000A3E0F9850E82850F83123067EE24041248
:102F100038CAE96027850C82850D83123049123347
:102F2000CFE508700302302F123071850E82850FB5
:102F30008312305D1204107900023044E4F514F578
:102F400015781412188F7514E87515027814121874
:102F50008F7514E9751502781412188F74081216FB
:102F6000701218A67911EEFCEFFD850E82850F8395
:102F7000123C1E12163BE9F509709A850882AA8256
:102F8000EA9002E87009E02404900300F08025E054
:102F9000F8900300E0F514E82404FCE43400FDECB0
:102FA00065147001ED7081122E169412122E0E40CF
:102FB00003022F28850C82850D83E0C0E074012A6E
:102FC000122CCDD0E0F00508850C82850D83A3E09E
:102FD000C0E0122CC6D0E012308C85820C85830DA7
:102FE000780C12188F74041216701218A6851082AD
:102FF00085118312308312163B8A0C8B0DAE0CAFF9
:103000000D85080C7401250CF874033400F9EE4F9B
:103010007003022EBE851882851983E08882898319
:1030200012308CA3E0C0E0122CC6D0E0022ECCE51A
:1030300009700375090A850A82850B8312304912CB
:1030400033CFA9097404022CBE123BF2851282858B
:103050001383227CFF7D02850A82850B83123061F7
:1030600022E0FAA3E0FB2212306112066EE9F509B4
:1030700022900300E0F5F0E508849002FFF07CFF69
:103080007D0222122CF612068C740422F0050885AB
:1030900018828519832274EC12167C74FE12162590
:1030A0008A088B098C0E8D0FEA2405FEEB3400FF95
:1030B00012329FEE24181238CAEA450B700302310F
:1030C0004212328850291231678A108B11EA451159
:1030D000606B7912AC0AAD0B8508828509831230CA
:1030E0005D85108285118312167AE9F50A7058E41D
:1030F000F50AF50B780A12188F8E828F83A3A3E04E
:10310000F50A780A12188FEE24031233AF780A12E8
:10311000188F8E828F8312317412079A74061216DA
:103120003BE9F50A7021850C82850D83E0701F85CF
:10313000088285098312305D1204168011750A0E0B
:103140008009750A018004E50A60031233C2850C08
:1031500082850D83E0600479008002A90A7402125E
:10316000163B7F0C02174E85188285198312306139
:10317000120788221233BDFD85088285098312302B
:10318000612274EE12167C74FE1216258A088B09D1
:103190008C0C8D0DEA2405FEEB3400FF750E001239
:1031A000329FEA450B7003023266123288502C12AD
:1031B00031678A0E8B0FEA450F604A7912AC0AAD6F
:1031C0000B85088285098312305D850E82850F8309
:1031D00012167AE9F50E60030232698508828509C4
:1031E000831234A4AA0AFB12327A70147AFF7BFF8E
:1031F00012327A606C88828983E50AF0A3E50BF0CD
:10320000750A008007750E0E805F050A9002E5E0E2
:10321000FAE50AC39A504AE50A75F017A4FAABF02A
:1032200088828983A3A3E02AFAA3E03BFB8A828BEE
:10323000831233B8EC4D70D2750A17750B00780AFB
:1032400012188FEEFCEFFD120F32740212163BEED5
:10325000FCEFFD85088285098312305D12041C8015
:1032600014750E098003750E01123BEA850C8285E8
:103270000D831233CFA90E022E0912077C8A108B00
:1032800011A810A911E84922E5082402F508E5096A
:103290003400F5098A828B83A3A3A3E0A2E52285EB
:1032A0001882851983AC82AD838E828F831232B5EA
:1032B0008A0A8B0B22E0FAA3E0FB12068622740432
:1032C00012163B7F0A02174E74EC12167C8C108D7E
:1032D00011EA2405F50CEB1238CD750F00EA240233
:1032E000F50AEB1233B2850A82F58312305D123C87
:1032F000A470030233A4750E008071850C82850DC5
:1033000083E06401704F8E828F83A3A31218A68E70
:10331000828F83A3A3A3A3E0F51275130078121282
:10332000188FEE2405F512EF3400F51378121218F9
:103330008F12305712079A740612163BE9F50F6088
:1033400014850C82850D83E4F0123BEA851082859A
:1033500011831233CF7C177D007900EEFAEFFB1258
:103360000F4A8E828F83E4F0A3F0050E9002E5E011
:10337000F8E50EC398501EE50E75F017A4F8A9F0F5
:10338000850882850983A3A3123C0A1233B8EC4D49
:1033900060030232FB85088285098374FFF0A3F085
:1033A000E50F7006123057120422A90F023162F5A0
:1033B0000AEF3400F50B22A31233BDFD22E0FCA37B
:1033C000E0228E828F83123BF2850E82850F83E886
:1033D000F0A3E9F022C082C0839002E1E06A7003AA
:1033E000A3E06B70067AE17B0280047A007B000226
:1033F000271774F712167C7F00EF75F003A4F8A965
:10340000F0EC28F8ED39F988828983E06A7003A32B
:10341000E06B7006E8FAE9FB800B0FEFC394024003
:10342000D87A007B007F0102174E74F612167C12C8
:1034300039DB70067A007B008007A3A3A3A31230B8
:103440005D023A9C74F212167CE9FE740E1216703C
:103450001234A4741012167012390C8C828D83E011
:103460006402703BA3123BEE88828983E0F50CA3D3
:10347000E0F9A80C74026870037429697021750C56
:1034800002750D00780C12188F780812188F780AC0
:1034900012188FEEF91207BE740612163B800279DD
:1034A00001023B0CE0F50AA3E0F50B2274E81216CA
:1034B0007C74FB121625E9851882851983F08A161B
:1034C0008B178C0E8D0F741F12167012390C74210D
:1034D0001216701234A474231216701238F6751076
:1034E000008C828D83A3A3A3E0A2E4502A741D1252
:1034F000167012316D8A828B83E5824583700302D8
:1035000035B8790AAC0EAD0FAA16AB1712167AE9C8
:10351000F51060030235BB850E82850F83E06402DF
:103520006003023871A3123BEE850882850983A3EC
:10353000858212858313E50E2406F50CE50F1238FB
:10354000CD88828983E0FAA3E0F9EA2400F514E447
:1035500039F5157814121919010000280128803551
:103560000700022857360328C7350029813701296B
:10357000A9370229503703298137042912387138B5
:10358000EE4F703E850C82850D831238E7FAE9FB19
:103590008A828B83E0850A82850B83123923121875
:1035A0008F8A828B83A31233BDFDAA08AB09120F49
:1035B00032740212163B800375100EA910740502B6
:1035C0003BF875100B80F4EE4F70F7850A82850B7F
:1035D000837401F01238FC850882850983F07C0031
:1035E0007D00850E82850F83A3A3A3A3E02401FAA7
:1035F000A3E03400FB120686EA4B60418A828B838B
:10360000E02402F8850A82850B83E028F0EA24048E
:10361000F8EB3400F988828983E085128285138370
:1036200012393512392312188F8A828B831233B7DD
:10363000E5082403FAE5093400FB0235AE850A8269
:10364000850B83E02404F07C047D007900AA12AB92
:1036500013120F4A0235BBEE4F60030235C2123817
:10366000FCFEA3E0FF850A82850B837404F0EE85DF
:103670000882850983F0EF851282851383F0740335
:10368000121670AC82AD83EEFAEFFB1239C97003EB
:1036900002372D8A828B83A3A31238F2740112168B
:1036A0007085820E85830F780E12188F740512169E
:1036B000701218A67CFF7DFF12068C740412163B54
:1036C0008B0FEA450F7033850C82850D831238D23B
:1036D00012188F850C82850D83A31218A67C027D9B
:1036E000007AFE7B841204B8740412163BE9700A57
:1036F000740112167074FFF0A3F08E828F83E06461
:10370000027034750C02750D00780C12188F8E82C1
:103710008F831233B7E5082404FAE509122CE3126B
:10372000163B850A82850B83E0240280097401120E
:103730001670EEF0A3EFF074011216701238E3F079
:103740007401121670A31238DBA3A3A3F00235BBD9
:10375000EE4F60030235C2850C82850D831233B8AB
:10376000AA16AB171207B2850A82850B837402F082
:10377000EA850882850983F0851282851383EB80B0
:10378000CBEE4F60030235C21238FCF8A3E0F98596
:103790000A82850B837402F0E8850882850983F02C
:1037A000E985128285138380A3850C82850D83129F
:1037B000305D120F2CEAFC8C82A882C39EE49F40ED
:1037C0004BE86E7001EF70047C00801F85188285C5
:1037D0001983E0FAEE2AFAEF3400FBC3EA98EB947F
:1037E000005003E08004EECCC39CFCEC850A82858B
:1037F0000B83F08C0A750B00780A12188F850C82E7
:10380000850D83E02EFCA3E03F0235A97510070269
:1038100035BBEE4F60030235C2850C82850D8312E5
:103820003BEE850A82850B837407F08882898312B8
:1038300038DB1238C3E0851282851383F0E8240256
:10384000FAE93400FB8A828B831238DB12391412B6
:1038500038E3A312391D1238ECF0E82405F8E934F6
:1038600000F9888289831238ECA3123935A3023714
:1038700049741D1216701239D470030235B8123B08
:10388000EE880C890DE8450D70030235B88E108F57
:1038900011781012188F780A12188F780812188F62
:1038A0007406121670E0F9AC0EAD0FAA16AB1785B0
:1038B0000C82850D8312167A740612163BE9F510F8
:1038C0000235BBF088828983A322F50CEF3400F522
:1038D0000D22E0F50E750F00780E22E08508828536
:1038E00009832212393C22123BF2E82212393CA30E
:1038F000A322A3A3A3A3E0FEA3E0FF22850C82855D
:103900000D83E0F8A3E0F5838882E022E0F508A3C8
:10391000E0F50922A3A3F08A828B83A32212263426
:10392000A3A322F08A828B8312392C22E0F50A7538
:103930000B00780A221238C312393C22E085088233
:10394000850983A3A32274EE12167C74FE12162539
:103950008A0A8B0BECFAEDFB7414121670E0F5106A
:10396000A3E0F5117416121670E0FE7418121670AA
:10397000E0F50EA3E0F50F851882851983AC82ADC2
:10398000831239C9603E8518828519831239D46043
:103990002FA3A312390CE50845096024780E1218EC
:1039A0008F781012188FEEF9AC0CAD0DAA0AAB0B84
:1039B00085088285098312167A740412163B8006E4
:1039C000790E80027901022E091206868A0C8B0D6F
:1039D000EA450D221230611239DB221207468A8233
:1039E0008B83E58245832274F612167C74FE1216D0
:1039F00025740C1216701238E7851882851983F029
:103A00007401121670E9F0E4F508F5097808121847
:103A10008F750802780812188F7404121670858248
:103A200008858309780812188F12079A74061216EF
:103A30003B740212163B806474F712167CEAFEEBAC
:103A4000FF89087C187D031207B2EA5402600BA9B3
:103A500008EEFAEFFB12067A80027901023425742F
:103A6000F612167C74FF6A700374FF6B701C7B0087
:103A7000EB75F003A4F8A9F0EC28F8ED39F9123A47
:103A8000A10BEBC39402501480E61207828A088BC4
:103A900009A808A909E8496003123AA17F020217A0
:103AA0004E8882898374FF122632E4F02274F61263
:103AB000167C1207828A828B83E58245836006A387
:103AC000A3E0FA80027A007B0080D174F212167CA7
:103AD0008A088B09ECFEEDFF740E121670E0F50AF1
:103AE000123B11701CEEFCEFFD7AFF7BFF123B11C5
:103AF00070047911801688828983E508F0A3E509AE
:103B0000F088828983A3A3E50AF079007F06021773
:103B10004E1207828A0C8B0DA80CA90DE84922745D
:103B2000EE12167CEAFEEBFF8C088D09890C7412EC
:103B3000121670123BEE74141216701233B874160B
:103B400012167012305D750D00EC4D6003023BE201
:103B50007402650C6003023BDD888289831233BDE9
:103B6000F9EC2400F50EE439F50FEAF4F8EBF4F97A
:103B7000EC58F8E50F59F9E849705DE5082406F8B6
:103B8000E5093400F9880A890B8882F583122CF242
:103B90001207B28A108B11E50E65107004E50F65EF
:103BA000116042780E12188F850A82850B83122CC1
:103BB000F21207B8740212163BE9F50D7027780E61
:103BC00012188F850882850983A3A3122CF012078F
:103BD000CA740212163B800D750D808008750D0D9C
:103BE0008003750D0BA90D0232C38E828F83123BA9
:103BF000F222E0F8A3E0F92212163B7F1002174EE2
:103C00003400F50D850C82F58322E028FEA3E0390F
:103C1000FF8E828F83227916850A82850B8312306C
:103C20006112079474082274F212167CEAFEEBFF0C
:103C3000890B7401650B600E7402650B706379016A
:103C40001209A4E9705BEEFAEFFB123CA460477521
:103C50000A00800B7C177D007900120F4A050A903C
:103C600002E5E0F8E50AC3985021E50A75F017A4CB
:103C7000F8A9F0850882850983A3A3E028FAA3E0C8
:103C800039FB8A828B8312271E70C98508828509B9
:103C90008374FFF0A3F07C187D03EEFAEFFB1207AC
:103CA000AC023B0C12077C8A088B09EA4509227496
:103CB000F212167C8A088B09ECFEEDFF740E1216C8
:103CC000701234A49009F8E0F4603D7A097B001288
:103CD0000F5CEA4B60328A828B8374B1F0A3E412EA
:103CE0003916A3123914A3E508F0A3E509123D0B18
:103CF000EEF0A3EF123D0BA3A3E50AF0A3E50BF052
:103D00009009F8E0F9120F68023B0CF08A828B836D
:103D1000A3A3A3A3A322C082C0839061907404F0E4
:103D2000A37448F0A37402F09061807440F0906135
:103D3000BC7403F09061877419F0906265741BF095
:103D400090619C740DF090619A7433F0A37455F0F7
:103D50009061A0743AF090055CE064017009C29132
:103D60009003C6746780059003C67461F09024F6D2
:103D7000E493906186F09024F0E493F46027E49358
:103D8000540FF8906185E0686012E5C6548044499C
:103D9000F5C6E59E547F644970F8E8F053C680E5A7
:103DA0009E547F70FA7905120CF8023F58C082C009
:103DB00083E9540FF9906185E0696012E5C654808B
:103DC0004449F5C6E59E547F644970F8E9F053C64E
:103DD00080E59E547F70FA023F58C082C083E5A8F8
:103DE000F853A87E906181E4F0A3F0A3F0C2BA5327
:103DF0009AFEC289759B00C2C275E9007591007573
:103E0000BF0075A91175B905906181F0A374C0F068
:103E1000A3E4F0D2BA439A0174805842A8023F58F2
:103E2000C082C08374F81216259003C4E0F8A3E0A2
:103E3000F9E8497003023F4E9003C4E05440602308
:103E40007908851882851983AA82AB83120B608555
:103E50001882851983AA82AB831208369003C4E0C6
:103E600054BFF0E054806010790C7A807B05120B0F
:103E7000609003C4E0547FF0E0A2E0503190619A7A
:103E80007433F0A37455F09061A0743AF090055C1F
:103E9000E064017009C2919003C6746780059003C5
:103EA000C67461F012083C9003C4E054FEF0E05484
:103EB00002603190619A743FF0A3745AF09061A04F
:103EC000747FF090055CE064017009D2919003C6A4
:103ED000747180059003C6746AF012083C9003C4A4
:103EE000E054FDF0E0540460139024F4E4939061F6
:103EF00086F01208429003C4E054FBF0E0540860DE
:103F0000139024F5E493906186F01208429003C464
:103F1000E054F7F0E0541060139024F6E4939061BD
:103F200086F01208429003C4E054EFF0E0542060A1
:103F30000A1208429003C4E054DFF0A3E054016089
:103F40000D120A881208489003C5E054FEF0740868
:103F500012163B8003F0A3F0D083D08202013574A7
:103F6000EC12167C74F4121625851882851983AC20
:103F700082AD837583847582D274041215389024BF
:103F8000F493F460030240EC907808E0C39402508C
:103F9000030240CC7404121670AC82AD8375838426
:103FA00075821374081215388518828519838582E5
:103FB000128583137404121670AC82AD83750EFFE4
:103FC000750FFF7FFF7E00750C48750D78801574A6
:103FD000086E700302405F74096E700302405F74E4
:103FE0000A6E607B850C82850D8378081214F58C2F
:103FF000828D83A909E50AC9F88810741878081217
:104000001436E5104508F8C3E098A3E099850C82C2
:10401000850D8378081214F540188C828D837418EE
:104020007808121436E5104508F8E0C398F8A3E0C4
:10403000801C74187808121436E5104508FAE9FB5C
:104040008C828D83E0F8A3E0F9EAC398F8EB99F944
:10405000C3E8950EE9950F5006880E890FEEFF0E06
:10406000E50C2404F50CE50D3400F50DEEC39413B6
:104070005003023FCF74FF650E700474FF650F603C
:10408000238F087402780812161274482508F582E6
:1040900074783509F58378081214F5851282851332
:1040A00083E508F0EC24020C0CED3400FD8512824F
:1040B000851383A3858212858313740C121670E511
:1040C000826C7003E5836D6003023FBD7508017566
:1040D0000900780812188F7402121670AC82AD8332
:1040E0007A3D7B0912113C740212163B740C1216B5
:1040F0003B7F0C02174EC082C0839061AE7468F0A3
:10410000A3746AF090624574FBF0A304F053F4FDCD
:1041100043FE0290055C7401F09061A0E0643A9067
:10412000619A70237433F0A37455F09061A0743ACF
:10413000F0740164017009C2919003C6746780280D
:104140009003C674618021743FF0A3745AF09061AB
:10415000A0747FF0740164017009D2919003C67459
:104160007180059003C6746A023F577F0402174EA0
:10417000C082C08390050EE06401700A900513E0D0
:104180006004790C80027900023F58C082C08375B8
:10419000E1F1900511E06055146008146059146055
:1041A000518059120A9A900507E0F97A087B0512A6
:1041B0000C7A90849A121513120CB09084E21215A6
:1041C00013120C86900512E0F9120C927901120C70
:1041D000EC900505E02416F8A3E03400F988828904
:1041E0008374B2F0A3740AF07900023F58120AA057
:1041F00080B4120AA680AF120AAC80AA791280EAB3
:1042000074F412167C75D90D9004F6E0A2E0E43344
:104210001313F8900507E0C4333354C0484401F544
:10422000D97805790588828983A3A3A3E0F5D98885
:10423000828983A3A882A983E8640B7003E96405DB
:1042400070E378F6790488828983A3E0F5D98882BF
:104250008983A3A882A983E864FC7003E9640470DD
:10426000E575E1959004F6E0F97AF77B04120C808D
:10427000900A1A7446F0A3740AF0A374A8F0A37409
:104280000BF0A374A8F0A3740BF0A374A8F0A374AC
:104290000BF0A3744CF0A3740AF0A374A8F0A374F9
:1042A0000BF0A37464F0A3740AF0900A2874A8F0C9
:1042B000A3740BF0A374A8F0A3740BF0A374A8F07C
:1042C000A3740BF0A374A8F0A3740BF0A374A8F06C
:1042D000A3740BF0A374A8F0A3740BF0900505E091
:1042E000F8A3E0F5838882A3A378081214F59084DC
:1042F0009278081214819084DA78081214CF90050D
:1043000005E0240EF8A3E03400F988828983780858
:10431000121504900505E02414F8A3E03400F98890
:104320008289837413F09003C27402F002416BC05F
:1043300082C083900517E02407F5D9900507E0C4F3
:10434000333354C0F5D97805790588828983A3A3CE
:10435000A3E0F5D988828983A3A882A983E8640BA6
:104360007003E9640570E3900517E0601F78057934
:1043700005FAE82413F582E93400F583E0F5D988DD
:10438000828983A3A882A9831AEA70E6900537E0A0
:104390002407F5D9900507E0C4333354C04404F52D
:1043A000D97805790588828983A3A3A3E0F5D98804
:1043B000828983A3A882A983E8640B7003E964055A
:1043C00070E3900537E0601F78057905FAE824333B
:1043D000F582E93400F583E0F5D988828983A3A8C2
:1043E00082A9831AEA70E675E195900A1A7452F070
:1043F000A3740AF0A374A8F0A3740BF0A374A8F03C
:10440000A3740BF0A374A8F0A3740BF0A3744CF086
:10441000A3740AF0A374A8F0A3740BF0A37464F05F
:10442000A3740AF0900A2874A8F0A3740BF0A37484
:10443000A8F0A3740BF0A374A8F0A3740BF0A374FA
:10444000A8F0A3740BF0A374A8F0A3740BF0A374EA
:10445000A8F0A3740BF090847A121513900505E070
:10446000240EF8A3E03400F98882898312151F9086
:104470000505E02414F8A3E03400F98882898374E8
:1044800012F09003C27401023F57C082C0839005AE
:1044900017E02407F5D9900507E0C4333354C0442E
:1044A00002F5D97805790588828983A3A3A3E0F56D
:1044B000D988828983A3A882A983E8640B7003E961
:1044C000640570E3900517E0601F78057905FAE848
:1044D0002413F582E93400F583E0F5D988828983D5
:1044E000A3A882A9831AEA70E675E195900A1A7466
:1044F0005EF0A3740AF0A3745EF0A3740AF0A374D0
:104500005EF0A3740AF0A3745EF0A3740AF0A374BF
:104510005EF0A3740AF0A3745EF0A3740AF0A374AF
:1045200064F0A3740AF0900A2874A8F0A3740BF046
:10453000A374A8F0A3740BF0A374A8F0A3740BF0F9
:10454000A374A8F0A3740BF0A374A8F0A3740BF0E9
:10455000A374A8F0A3740BF090847A12151390053D
:1045600005E0240EF8A3E03400F98882898312154F
:104570001F900505E02414F8A3E03400F98882892F
:10458000837414F09003C27404023F57C082C08346
:10459000900517E02407F5D9900507E0C43333549C
:1045A000C04406F5D97805790588828983A3A3A339
:1045B000E0F5D988828983A3A882A983E8640B7077
:1045C00003E9640570E3900517E0601F780579053D
:1045D000FAE82413F582E93400F583E0F5D98882FE
:1045E0008983A3A882A9831AEA70E6900537E0249C
:1045F00007F5D9900507E0C4333354C04404F5D916
:104600007805790588828983A3A3A3E0F5D98882F8
:104610008983A3A882A983E8640B7003E964057009
:10462000E3900537E0601F78057905FAE82433F553
:1046300082E93400F583E0F5D988828983A3A882D2
:10464000A9831AEA70E675E195900A1A7458F0A3E6
:10465000740AF0A374A8F0A3740BF0A374A8F0A3D9
:10466000740BF0A374A8F0A3740BF0A374A8F0A3C8
:10467000740BF0A374A8F0A3740BF0A37464F0A3FC
:10468000740AF0900A2874A8F0A3740BF0A374A81D
:10469000F0A3740BF0A374A8F0A3740BF0A374A898
:1046A000F0A3740BF0A374A8F0A3740BF0A374A888
:1046B000F0A3740BF090847A121513900505E02492
:1046C0000EF8A3E03400F98882898312151F900543
:1046D00005E02414F8A3E03400F988828983741576
:1046E000F09003C27403023F57C082C08390050557
:1046F000E0F8A3E0F5838882A3A3A3A3A3A3E40225
:104700003F5574F712167C9003F0E0F875F004A49E
:10471000C8AAF02AF974F228F8740339F9E82405D4
:10472000FAE93400FB8A828B83E0FCA3E0FD8882F7
:104730008983A3A3A3A3A3A3A3A3A3ECF0A3EDF056
:1047400088828983A3A3A3A3A3A3A3E024FFF8A340
:10475000E034FFF98A828B83E8F0A3E90249A77469
:10476000F712167CEAFEEBFF9061D0E0600302488E
:104770003C75D90E75D90375D904EE248CF582EFFA
:104780003400F583E5822408F8E5833400F9E0F588
:10479000D9A3E865827003E9658370F2EE2484F59D
:1047A00082EF3400F583E5822404F8E5833400F9D0
:1047B000E0F5D9A3E865827003E9658370F275E1DD
:1047C000957908EE248CFAEF3400FB120B5479042F
:1047D000EE2484FAEF3400FB120B547C00EEF8EF69
:1047E000F9ECFAC3E49AFA95E0FBEE2AFAEF3BFB08
:1047F000EA248BF582EB3400F583E0C0E0E824ABDB
:10480000F582E93400F583D0E0F00C88828983A337
:10481000A882A983ECC3940840C7EE2470F582EF08
:104820003400F583E0F8A3E0F9EE2472F582EF346A
:1048300000F583E8F0A3E9F07901800279000249EC
:10484000A8C082C08375D90275D90375D90575E1F1
:1048500095EA2470F582EB3400F583E0F8A3E0F9E3
:10486000EA2472F582EB3400F583E8F0A3E9F079ED
:1048700001023F5874F612167CEAFEEBFF900560C9
:104880007406F0750860750905780812188F7C01A8
:104890007903120B9C740212163B75D90675D90365
:1048A000758260758305E0F5D9A3E58264657004BF
:1048B000E583640570F075E1959003C2E0640870CB
:1048C0001EEE2470F582EF3400F583E0F8A3E0F9E2
:1048D000EE2472F582EF3400F583E8F0A3E9F07975
:1048E00001024A7474F612167CEAFEEBFF9061D066
:1048F000E070667801900560740BF09003C2E0648C
:10490000077019750860750905780812188F7C0101
:104910007903120B9C740212163B7805740128F57A
:10492000D975D903758260758305E8FAE0F5D9A3D6
:104930001AEA70F875E195EE2470F582EF3400F50F
:1049400083E0F8A3E0F9EE2472F582EF3400F583FA
:10495000E8F0A3E9F0790180027900024A7474F763
:1049600012167CEAFEEBFF75D90375D90375D90DD4
:10497000EE24DEF582EF3400F583E0F5D975E1959C
:104980007904120CB6EE2470F582EF3400F583E062
:10499000F8A3E0F9EE2472F582EF3400F583E8F035
:1049A000A3E9F079018001F07F0102174E74F6123D
:1049B000167CEAFEEBFF9061D0E0F87480C398FAB1
:1049C000EE2483F582EF3400F583E0600478048000
:1049D000027800E8240BF8EAC3985003024A727D7B
:1049E00009900560EDF0EE24E3F8EF3400F97A6108
:1049F0007B057C0888828983E08A828B83F08882A9
:104A00008983A3A882A9838A828B83A3AA82AB838A
:104A10001CEC70E0EE2483F582EF3400F583E06057
:104A20001D750860750905780812188F7C097903CF
:104A3000EEFAEFFB120B9C740212163B7D0D740113
:104A40002DF5D975D9037582607583058D08E0F55C
:104A5000D9A31508E50870F675E1957904120CB62E
:104A6000EE241DF582EF3400F583E4F0A3F0790124
:104A7000800279007F0202174E74F612167CEAFE5D
:104A8000EBFF9061D0E0F87480C398FAEE2483F5D0
:104A900082EF3400F583E06004780480027800E857
:104AA0002408F8EAC3985003024B797D069005600C
:104AB000740CF09003DFE0900561F07AE07B0378FE
:104AC0006279057C028A828B83E088828983F08AFE
:104AD000828B83A3AA82AB8388828983A3A882A9BD
:104AE000831CEC70E07AE27B037C028A828B83E099
:104AF00088828983F08A828B83A3AA82AB8388828F
:104B00008983A3A882A9831CEC70E0EE2483F5823C
:104B1000EF3400F583E0601D7508607509057808BD
:104B200012188F7C067903EEFAEFFB120B9C7402CD
:104B300012163B7D0A74012DF5D975D90375826073
:104B40007583058D08E0F5D9A31508E50870F6759D
:104B5000E1957904120CB6EE2470F582EF3400F57D
:104B600083E0F8A3E0F9EE2472F582EF3400F583D8
:104B7000E8F0A3E9F0790180027900024A7474F642
:104B800012167CEAFEEBFF9061D0E0F87480C398C7
:104B9000FAEE2483F582EF3400F583E060047804B4
:104BA00080027800E82404F8EAC3985003024C58C5
:104BB0007802900560E8F0EE24F5F582EF3400F518
:104BC00083E0900561F0EE2483F582EF3400F583F5
:104BD000E0601B750860750905780812188F7C0263
:104BE0007903EEFA120B9C740212163B78067401DC
:104BF00028F5D975D9037582607583058808E0F5B5
:104C0000D9A31508E50870F675E195EE2474F582D0
:104C1000EF3400F583E4F0EE2480F582EF3400F504
:104C200083E4F0EE241DF582EF3400F583E4F0A375
:104C3000F07904120CB6EE240DF582EF3400F58302
:104C4000E0F8A3E0F9EE2472F582EF3400F583E892
:104C5000F0A3E9F0790180027900024A7474F61237
:104C6000167C9061D0E0F87480C398FCEA2483F548
:104C700082EB3400F583E06004780480027800E879
:104C80002404F8ECC398405B79029005607407F047
:104C9000EA24F6F582EB3400F583E0900561F0EA52
:104CA0002483F582EB3400F583E0601875086075A5
:104CB0000905780812188F7C0209120B9C740212E5
:104CC000163B7906740129F5D975D903758260758B
:104CD0008305E9F8E0F5D9A318E870F875E195794E
:104CE0000180027900024A7474F512167CE9FCA274
:104CF000AFE433F50AC2AF7D0080010DEA246FF501
:104D000082EB3400F583E0F8EDC398501A8D08EA81
:104D10002508F8EB3400F9E8246BF582E93400F556
:104D200083E06C70D68024EA246FF8EB3400F9E05D
:104D3000FEEA2EFAEB3400FBEA246BF582EB34003A
:104D4000F583ECF088828983E004F0E50AA2E09222
:104D5000AF7F0302174E74F612167CA2AFE433FD48
:104D6000C2AFEA246FF582EB3400F583E014F07CE7
:104D70000060368C08EA2508F8EB3400F9E8246C6A
:104D8000F582E93400F583E0C0E0E8246BF582E9C0
:104D90003400F583D0E0F00CEA246FF582EB3400A8
:104DA000F583E0F8ECC39840CAEA246EF582EB3450
:104DB00000F58374FFF0EA246AF582EB3400F58392
:104DC000E4F0EDA2E092AF024A74C082C083E5A88D
:104DD000F8C2AFEA246BF582EB3400F583E9F0EA20
:104DE000246AF582EB3400F583E4F0E8A2E792AFA1
:104DF000023F5874F312167CEAFEEBFFECFAEDFB6F
:104E00008A828B83A3A3A3A3E0541FF0EE2436F57C
:104E100082EF3400F583E4F0F50AEEFCEFFD8A82C0
:104E20008B83E0C0E0EC245DF582ED3400F583D0A7
:104E3000E0F0750B00E50A33333354F8F50C8A8241
:104E40008B83E0F508750900E50B78081215F3E58A
:104E500008A2E0502FEE2436F8EF3400F98882895A
:104E600083E0F508EE2508F508EF3400F509E508BC
:104E70002438F582E5093400F583E50CF088828951
:104E800083E004F0050B050CE50BC3940840AF0567
:104E90000A8A828B83A3AA82AB838C828D83A3AC84
:104EA00082AD83E50AC394055003024E1E7F0502BE
:104EB000174E74F712167C9003EEE0640170077AC7
:104EC000007B000250297E009003F4E070F1740131
:104ED000F0A3E4F0A3F090045404F0900457E4F03D
:104EE000A3F090045A04F09003F7E4F0A3F0A3F0C9
:104EF000A3F090040104F0900427E4F0908476126B
:104F0000151390040A12151F90040EE4F0A3F0A3E9
:104F1000F0900472F0900466F090045B7480F0A34B
:104F2000E4F0900461F0900459F09004DDF0A3F0F7
:104F3000A3F0A3F0A3F0A3F0A3F0A3F09004E6F095
:104F4000900475F09004C5F0A3F0908476121513C8
:104F50009004C712151F9084761215139004CB127B
:104F6000151F9004D1E4F09004D3F09004CFF0909A
:104F700004E9F0A3F0A3F0A3F0A3F0A3F0A3F0A33F
:104F8000F078EE7903E8246FF582E93400F5837454
:104F9000FFF00E88828983A3A882A983EEC39404BC
:104FA00040E37AEE7B0378FD790488828983E0C050
:104FB000E0EA2461F582EB3400F583D0E0F08882EA
:104FC0008983A3A882A9838A828B83A3AA82AB83C5
:104FD000E864027003E9640570D07AEE7B0378D54B
:104FE000790388828983A3E0C0E0EA24E7F582EBB5
:104FF0003400F583D0E0F088828983A3A882A98356
:105000008A828B83A3AA82AB83E864DD7003E964A0
:105010000370CF9003EEE004F0640170089003F693
:10502000E09003F0F07AF27B030249A8C082C083CB
:105030009003F5E4F09003F4F09003EEF0A3F0A3F6
:1050400074FFF075E1F1023F58C082C083780079A7
:10505000009003F5E0600478F2790388828983A3E5
:10506000A3A3A3E0F9023F5874F612167CEAFEEB04
:10507000FF8E828F83A3A3A3E0600F8E828F83A312
:10508000A3A3E4F09003EFE014F09003EEE014F03B
:1050900070069003F074FFF08E828F83A3A3E4F078
:1050A000900502E0700D9003EFE064017005790057
:1050B000120C98EE2465F582EF3400F583E0F8A336
:1050C000E0F9E8496029EE2465F8EF3400F9880832
:1050D00089098882F583E0FCA3E0FD9003F0E0FA03
:1050E0007B0012086C850882850983E4F0A3F0EE4A
:1050F000FAEFFB120BCC024A7474F712167CEAFE2C
:10510000EBFF8E828F83A3A3A3A3E0FA7B00120898
:10511000AEEEFAEFFB120B1E120BB40249A8C082CE
:10512000C08378D5790388828983A3E4F088828953
:1051300083A3A882A983E864DD7003E9640370E6B1
:105140009003D602448574F612167CEAFEEBFFEC5F
:105150002403F8ED3400F988088909EC2407F8EDF8
:105160003400F9E8FCE9FD8C828D83E0F8A3E0F9D6
:10517000850882850983E0FAA3E0FB12159AEE24E4
:105180000DF582EF3400F583E8F0A3E9F08C828D11
:1051900083E0F8A3E0F9850882850983E0FAA3E0BB
:1051A000FB12159A8B09EA45096013EE240DF5826E
:1051B000EF3400F583E02401F0A3E03400F0024A6C
:1051C0007474F612167CEAFEEBFFEE242EF582EFE5
:1051D0003400F583E0FCA3E0FD780079FAECFAED09
:1051E000FB12159AEE2470F582EF3400F583E8F097
:1051F000A3E9F0780079FAECFAEDFB12159A8B0925
:10520000EA45096013EE2470F582EF3400F583E07F
:105210002401F0A3E03400F0024A7474F012167C0A
:10522000EAFEEBFF741012167078081214F5120CD7
:10523000568A0C8B0D8C0E8D0F90848A780C12146C
:10524000819084DA780C1214CF780C12188B8E822D
:105250008F83E0F8A3E0F5838882A3A312151312CD
:105260002222740412163BE960030253688E828F77
:1052700083E02402F8A3E03400F9E8FAE9FB8A822B
:105280008B8378081214949084DA78081214F58AC3
:10529000828B8378081214E2EE240BF582EF34003F
:1052A000F583C082C0838E828F83A3A3A3A3A3E0D0
:1052B0002401F8A3E03400F9D083D082E0687003C1
:1052C000A3E0697005790102536A8E828F83A3A3DC
:1052D000A3A3A3A3A3E02401F0A3E03400F0EE24F1
:1052E00074F582EF3400F583E064017036EE2475C6
:1052F000F582EF3400F583E0F8A3E0F98E828F8326
:10530000A3A3A3A3A3A3A3E0687003A3E0697013FE
:10531000EE2475F582EF3400F583E02401F0A3E07C
:105320003400F0EE2480F582EF3400F583E0640170
:105330007036EE2481F582EF3400F583E0F8A3E0C7
:10534000F98E828F83A3A3A3A3A3A3A3E068700312
:10535000A3E0697013EE2481F582EF3400F583E059
:105360002401F0A3E03400F079007F0802174E74A6
:10537000F712167C9003F0E0F875F004A4C8AAF0C8
:105380002AF974F228FE740339FF8028EE2465F8A8
:10539000EF3400F988828983E0FCA3E0FD888289EC
:1053A00083E4F0A3F08E828F83A3A3A3A3E0FA7B10
:1053B0000012086CEE2465F582EF3400F583E0F806
:1053C000A3E0F9E849604FEE2464F582EF3400F57C
:1053D00083E0F5087808121893EE2463F582EF3421
:1053E00000F583E0F9EE2465F582EF3400F583E003
:1053F000FCA3E0FDEEFAEFFB120B48740112163B22
:10540000E96089EE2465F582EF3400F583E0F8A3C6
:10541000E0F9E84970137C007D008E828F83A3A39E
:10542000A3A3E0FA7B0012086C0249A874F21216DA
:105430007CEAFEEBFF890A740E121670E0FAEE2485
:1054400062F582EF3400F583E0640160030254F8F2
:105450009061D0E0F87480C398F50CEE2483F58257
:10546000EF3400F583E06004780480027800890856
:10547000E928F8E43400F9E824020808E93400F9DE
:10548000E50C98E499A2D265D0334068EA700575BE
:105490000B028003750B01E0603975090078081272
:1054A000188F7A607B05120B7E740212163B75080A
:1054B00060750905780812188FAC0AA90BEEFAEF8F
:1054C000FB120B9C740212163B7404250AF50A7C2D
:1054D000607D057401250AF5D9850BD9E50A600DB3
:1054E0008C828D83F8E0F5D9A318E870F875E19502
:1054F000790080067907800279FF7F0602174EC087
:1055000082C083E960208C828D83E08A828B83F065
:105510008C828D83A3AC82AD838A828B83A3AA8283
:10552000AB8319E970E0ECFAEDFB023F5874EA1224
:10553000167C907803E06442705E90055FE014F0A2
:105540007056C2AF12554700782AD0E0F618D0E066
:10555000F6E59F5407F97005908486800390848255
:1055600078081214F5E9C4C0E07829E65508F50872
:1055700008E65509F509740B7808121603D0E025E2
:1055800008F8906270E0A2E740F8E8C333906272D6
:10559000F0906270E0D2E0F09003F0E0F47003026B
:1055A0005950E0F875F004A4C8AAF02AF974F2285A
:1055B000FE740339FFEE2402F582EF3401F583E037
:1055C000F8A3E0F9E849601EEE2402F582EF340109
:1055D000F583E0FAA3E0FBEE2401F582EF3401F558
:1055E00083E0F9120F8C8E828F83A3A3A3A3A3A3BE
:1055F000A3E0F8A3E0F98E828F83A3A3A3A3A3E87B
:10560000F0A3E9F0906054E09003C9F0906055E099
:105610009003CAF0906056E09003CBF0906057E0A2
:105620009003CCF0906058E09003CDF0906059E08A
:105630009003CEF090605AE09003CFF090605BE072
:105640009003D0F090605CE0FC9003D1F090605D3E
:10565000E0FB9003D2F090605EE0FD9003D3F09009
:10566000605FE0FA9003D4F09003CFE08C08250847
:10567000F8E43400F98D08E82508F8E93400F98BDE
:1056800008E82508F8E93400F98A08E82508FAE965
:105690003400FBEE24F7F582EF3400F583E02AF0C6
:1056A000A3E03BF08C08EE24F9F582EF3400F5839B
:1056B000E02508F0A3E03400F0EE24FBF582EF349F
:1056C00000F583E02401F0A3E03400F0EE24FFF5C0
:1056D00082EF3400F583E0F8A3E0F9E849604290F6
:1056E0006000E0C333FCE433FDE82CF582E93DF5CE
:1056F00083E02AF0A3E03BF0906000E0FA9003D151
:10570000E0FCEAC333FAE433FBE82AF8E93BF9E8C2
:10571000244AF582E93400F583E02CF0A3E034005C
:10572000F09003CFE070119003D2E0700BA3E07013
:1057300007A3E070030258308E828F83A3A3A3A334
:10574000A3E0F8A3E0F9EE240DF582EF3400F58331
:10575000E028F8A3E039F9EE240BF582EF3400F5E8
:1057600083E8F0A3E9F0EE240FF582EF3400F5832F
:10577000E4F0EE241CF582EF3400F583E064017060
:105780001EEE2420F582EF3400F583E0F8A3E0F963
:10579000EE241DF582EF3400F583E8F0A3E9F090E4
:1057A00003CAE06052EE241CF582EF3400F58374E6
:1057B00001F0EE246AF582EF3400F583E07038EEF4
:1057C0002474F582EF3400F583E0702BEE2480F52D
:1057D00082EF3400F583E0701EEE2420F582EF3472
:1057E00000F583E0F8A3E0F9EE241DF582EF340024
:1057F000F583E8F0A3E9F0906062E070030258E3FB
:105800008E828F83E0F8A3E0F9E82406FCE93400F7
:10581000FDE82402FAE93400FB120C508E828F83DB
:10582000E02412F8A3E03400F9888289830258ED5D
:105830009003D1E0603AEE240FF582EF3400F58357
:10584000E4F0EE241CF582EF3400F583E06401708F
:1058500040EE2420F582EF3400F583E0F8A3E0F970
:10586000EE241DF582EF3400F583E8F0A3E98020F3
:10587000EE24FDF582EF3400F583E02401F0A3E08F
:105880003400F0EE241DF582EF3400F583E4F0A33C
:10589000F0EE240BF582EF3400F583E0F8A3E0F995
:1058A0008E828F83A3A3A3A3A3E0687003A3E06900
:1058B000600302579FEE240FF582EF3400F583E07A
:1058C00060128E828F83A3A3A3A3A3E0640570025A
:1058D000A3E0600B7908EEFAEFFB120B24807179DC
:1058E0003E80F3EE241DF582EF3400F583E4F0A34F
:1058F000F0906060E0C0E0EE2469F582EF3400F5DE
:1059000083D0E0F09003CFE0F8EE2467F582EF3427
:1059100000F583E028025A5090055DE0640170357F
:10592000120D04EE2467F582EF3400F583E0700673
:105930009060607480F0EEFAEFFB120C0EE96401E7
:10594000600E120B42120C08E964016003120BB4E2
:105950007F0E02174EEE2483F582EF3400F583E0CC
:105960006004780480027800E50CC398F91208609E
:105970008A0A8B0BEA450B60A7EE2483F582EF348D
:1059800000F583E070048A088B09E50C6012850835
:1059900082850983F512E5D9F0A31512E51270F698
:1059A000EE2483F582EF3400F583E0603774FC2544
:1059B0000CF50C780812188FAC0CA90DEEFAEFFB61
:1059C000120BA2740212163BE970197403650D7074
:1059D00003025A90E50A24FBFAE50B34FFFB120F91
:1059E000D4025A907403650D7003025A95850C0E0B
:1059F000750F00780E12188FAC08AD09AA0AAB0B10
:105A0000120B7E740212163BEE2469F582EF34000D
:105A1000F583E064807004747F8001E0F508780805
:105A2000121893E50DF5087808121893A90CAC0A22
:105A3000AD0B9003F0E0FA7B0012086674021216B8
:105A40003B120D10EE2467F582EF3400F583E0146D
:105A5000F0E07003025930750860750905750A0099
:105A6000750B00E5D914F50CE5D95403F50D60204C
:105A70007403650D700302598AE50C70030259180E
:105A8000EE2468F582EF3400F583E06003025918D4
:105A9000793D0258D6850882850983E0F8A385827E
:105AA00008858309603B147003025C8D1470030247
:105AB0005F81147003025CEB24FD7003025E0B1423
:105AC0007003025A41147003025E6124FE700302E7
:105AD0005E1A147003025E5C147003025EF6025FCD
:105AE00005EE2477F510EF3400F511E0851082857E
:105AF0001183F0850882850983A38582088583093F
:105B0000EE2478F50EEF3400F50F7902AC08AD09FC
:105B1000AA0EFB120B4E8A088B09EE247AF50CEFC5
:105B20003400F50D7902AC08AD09AA0CFB120B4E3E
:105B30008A088B097902AC08AD09EE247CFAEF34AF
